:020000040800F2
:10000000901E002065010008BF1A0008F9150008BD
:10001000BD1A0008BF0500089B2B00080000000067
:10002000000000000000000000000000AD230008F8
:10003000A10C000800000000011C0008C9290008EC
:100040007F0100087F0100087F0100087F01000890
:100050007F0100087F0100087F0100087F01000880
:100060007F0100087F0100087F0100087F01000870
:100070007F0100087F0100087F0100087F01000860
:100080007F0100087F0100087F010008992A00080D
:100090002D2B00087F0100087F0100087F01000868
:1000A0007F0100087F0100087F0100087F01000830
:1000B0007F0100087F0100087F0100087F01000820
:1000C0007F0100087F0100087F0100087F01000810
:1000D0007F0100087F0100087F0100087F01000800
:1000E0007F0100087F0100087F0100087F010008F0
:1000F0007F0100087F0100087F0100087F010008E0
:100100007F0100087F0100087F0100087F010008CF
:100110007F0100087F0100087F0100087F010008BF
:100120007F0100087F0100087F0100087F010008AF
:10013000DFF80CD000F05CF900480047894800085F
:10014000901E0020EFF30980704780F30988704704
:10015000EFF30880704780F30888704740BA704713
:10016000C0BA70470648804706480047FEE7FEE7EA
:10017000FEE7FEE7FEE7FEE7FEE7FEE7FEE7FEE757
:10018000F9290008310100082DE9F05F054600203B
:1001900092469B4688460646814640241BE02846F8
:1001A00041464746224600F09EF853465A46C01A3A
:1001B000914110D311461846224600F085F82D1AB9
:1001C00067EB01084F4622460120002100F07CF831
:1001D00017EB00094E41201EA4F10104DFDC484664
:1001E00031462A464346BDE8F09F40EA01039B079B
:1001F00003D009E008C9121F08C0042AFAD203E09C
:1002000011F8013B00F8013B521EF9D27047D2B2FF
:1002100001E000F8012B491EFBD270470022F6E7EF
:1002200010B513460A4604461946FFF7F0FF20466C
:1002300010BD30B505462A460B4612F8010B13F8DF
:10024000014B08B1A042F8D01CB1002802D06D1CAF
:10025000F1E7284630BD10B5044604E00B7800F8FD
:10026000013B03B1491C521EF8D2204610BD421C6E
:1002700010F8011B0029FBD1801A70470EB540F21F
:10028000334102910021CDE900110A460B4600F0EE
:1002900049F803B000BD000030B5041E71F1000440
:1002A00004DB4FF00044404264EB0101141E73F183
:1002B000000405DB1C464FF00043524263EB04038D
:1002C0008B4208BF824230BD202A04DB203A00FA6C
:1002D00002F1002070479140C2F1200320FA03F39D
:1002E000194390407047202A04DB203A21FA02F09B
:1002F0000021704721FA02F3D040C2F12002914060
:1003000008431946704710B5141E73F1000408DA4B
:10031000401C41F1000192185B411A4301D120F0C9
:10032000010010BD2DE9F04D92469B4611B1B1FA86
:1003300081F202E0B0FA80F220329046FFF7C4FF6B
:1003400004460F4640EA0A0041EA0B0153465A466A
:10035000084313D0114653EA010019D0C8F14002F6
:100360005046FFF7C0FF05460E46504659464246E6
:10037000FFF7AAFF084305D0012004E020463946D4
:10038000BDE8F08D0020054346EAE0762C43374374
:100390000A986305E40AA0EB08000022FD0A44EA7B
:1003A00047540A3002D500200146E9E7010510193B
:1003B0006941DDE9084500196941BDE8F04DA2E752
:1003C00070B521F0004303430CD0C1F30A5500245B
:1003D000D5EB040564EB0403D617AD1AB34102DB79
:1003E0000020014670BD201841EB025170BD000095
:1003F000064C074D06E0E06840F0010394E8070072
:1004000098471034AC42F6D3FFF796FEEC5A00083A
:100410000C5B000870B58C1810F8015B15F0070331
:1004200001D110F8013B2A1106D110F8012B03E08D
:1004300010F8016B01F8016B5B1EF9D12B0705D495
:100440000023521E0DD401F8013BFAE710F8013BDE
:10045000CB1A921C03E013F8015B01F8015B521EFA
:10046000F9D5A142D8D3002070BD000010B572B6F6
:1004700001F058FC02F0C0FA11494FF0006008602A
:1004800062B61048816941F03D0181610E484168C2
:1004900041F00071416000F033F804F011FD0B48A9
:1004A00081688068C1F38011022202EA9010014342
:1004B00004D104F053FF00F00BF8FCE710BD00007E
:1004C00008ED00E000100240000001400010014073
:1004D0000A4810B5016841F0020101604FF47A70DA
:1004E00002F04AFF0548001D016841F00201016069
:1004F000BDE8104040F6B83002F03EBF100C01409D
:10050000F8B51F48816941F01C018161012001F0AB
:10051000A1FE0824ADF8004003268DF802602820D3
:10052000184D8DF803006946284601F09BFE6C616A
:10053000012001F0E7F8012001F0DCF80220ADF81D
:1005400000008DF8026010208DF8030069460E4807
:1005500001F088FE4020ADF8000048208DF803002F
:1005600001208DF802006946284601F07BFE8020BC
:10057000ADF800006946284601F074FEF8BD0000A1
:100580000010024000100140000C014010B578B18D
:100590004FF48054012805D002280FD110210120EA
:1005A00001F0AAFF2146BDE81040022001F05CBF27
:1005B0001021BDE81040012001F09EBF10BDFEE7F4
:1005C000C1B2000A40EA01207047000070B5614BDB
:1005D000614C00205988A4F1400202E0155C2554CA
:1005E000401C8842FAD35C48626820301F29426070
:1005F000A268826007D00220FFF7C8FF00202060B9
:10060000607B1A2221E0E17B282901D02A290AD126
:10061000D4F81100227D00BA20F0FF00104358608A
:10062000E08A40BA98604D4A2068904252D14C4AC4
:10063000607B1268904203D8A27B0AB1102A0DD9C0
:100640000220FFF7A3FF607B2422052101F0EEFFCB
:10065000BDE870400021012001F0C8BF252958D015
:100660001ADC152971D00DDC08296ED005DCB9B370
:10067000032936D004292DD163E00A2965D0122937
:1006800028D132E01A390A2924D2DFE801F03632C3
:10069000235E32232323233E8A2956D00EDC55299C
:1006A00053D006DC28293CD02A2940D02F2911D14B
:1006B00043E05A2925D088290CD146E0A82944D006
:1006C00004DC8F2941D09E2904D13EE0AA293CD0E8
:1006D000AF293AD00220FFF759FF607B2022B4E710
:1006E0001BE0BDE8704001F03BBDBDE8704001F08B
:1006F00055BCBDE8704001F03FBDBDE8704001F061
:1007000087BCBDE8704001F07DBCBDE8704001F0E1
:10071000F1BCBDE8704001F0B5BCBDE8704001F02F
:100720002FBDD3E90112BDE8704001F077BCD3E9D9
:100730000112BDE8704001F059BDBDE8704001F004
:100740003BBDBDE8704001F011BCBDE8704001F058
:100750003FBC0000A0010020601A00205553424316
:10076000040200202DE9F041184E194F194C1A4D82
:1007700025E047F6FF702060288800F00F0107EBA6
:1007800081003170D0F8002C92B2130408D5D0F853
:10079000002C40F68F731A40C0F8002C0F4809E077
:1007A00012060CD5D0F8002C48F60F731A40C0F88A
:1007B000002C0B4800EB810050F8040C80472068A7
:1007C00028800004D5D4BDE8F0810000C0000020DE
:1007D00000500040445C004000020020E401002082
:1007E000C80100202DE9F84F0020ADF800004BF6BD
:1007F000BF7648F280084A4D4A4C40F68F7ADFF8BF
:10080000289148F60F7B494F2FE0088810F00F0021
:1008100089F8000032D007EB8001D1F8002CADF848
:100820000020BDF8002012040BD5D1F8002C02EAFC
:100830000A02C1F8002C3E4901EB800050F8040C7C
:100840008047BDF8000000060FD599F8000007EBBF
:100850008001D1F8002C02EA0B02C1F8002C3549C6
:1008600001EB800050F8040C80472D4844300068AC
:10087000314908800004C8D4BDE8F88F286820807A
:10088000208800F030006080208800F440502080F4
:100890002868304080F4005080F0200040EA0800D2
:1008A00028600888C00617D4296801EA0B0129606E
:1008B00000F0A4FE28E02188890401D580F40050CE
:1008C0006188C90628D46188890601D580F0200096
:1008D00040EA08002860CFE72868ADF80000BDF8BE
:1008E0000000000506D5296801EA0A01296001F027
:1008F000A3FE09E0BDF800000004B6D5286800EAB0
:100900000A00286001F048F9286821883040C904AD
:10091000D1D580F48050CEE780F01000D3E70000FE
:10092000005C0040D2000020C000002000500040C9
:10093000E4010020C80100200002002081000848D6
:100940000844D0F8001C490409D5D0F8001C48F62A
:100950008F7211404CF280021143C0F8001C7047A6
:1009600000500040810008480844D0F8001C4906A7
:1009700009D5D0F8001C48F68F72114048F2C00229
:100980001143C0F8001C7047005000408100064829
:100990000844D0F8001C48F68F62114048F28002EB
:1009A0001143C0F8001C7047005000402DE9F0478B
:1009B000DFF89490254F4FF03008D9F8001001F17E
:1009C0001005088A0E7A08B9042E04D0AC88A0421B
:1009D00015D8042614E01E480178012903D0072603
:1009E000102038802BE01B4A002112681A4B120499
:1009F00003EBD2325160A7F8008001701FE002269D
:100A0000844200D90446A9682046884782460020CF
:100A100000F0BCFD01462246504602F0BFF82146D8
:100A2000002001F05BFD2888001B28806888204496
:100A30006880A7F8008009494FF440500880D9F831
:100A400000000672BDE8F087C4000020D40000203A
:100A5000BC000020505C004000600040D20000203C
:100A60002DE9F047224EDFF88C803027346834F8C7
:100A7000100FA168A9B100B3A588854200D9054629
:100A80002846884781462088401B2080608828446B
:100A90006080002000F04EFD01462A46484601F0E5
:100AA0009FF8208848B114494FF440500880002135
:100AB000084601F013FDA8F800702088A18888423C
:100AC00001D3032001E020B1052031680872BDE8A0
:100AD000F087316806200872084900200968084A32
:100AE000090402EBD1314860A8F80070EFE700007C
:100AF000C4000020D4000020D2000020505C004040
:100B000000600040F8B55D4C5D4D09262068002767
:100B100029684278062A05D0AAB1082A4DD00A2AA7
:100B200050D06BE00278520668D18078012804D05A
:100B3000022804D0032804D060E0C96956E0096A9D
:100B400054E0496A52E04288B2BBC288022A55D1B9
:100B500002798ABB0278530601D1838833B102F04F
:100B60007F02012A04D0022A0CD047E045493DE02B
:100B70008A69407900219047F0B92068807A00287E
:100B8000F4D13BE0417901F00F0001F070020B0657
:100B90003D4901EB8001D1F8001C03D5C1F30111DF
:100BA000090102E0C1F301310903384B1B7883428C
:100BB00024D90AB90029D9D120E0007840061DD1F6
:100BC000334913E0027802F07F02012A16D1827ABB
:100BD000A2B1428892B9027982B9C288012A0DD1A4
:100BE0008A6940790021904740B92A4931B120688B
:100BF0004782816100208847002006E0296820683C
:100C0000096940788847032813D021680A8AA2F529
:100C10007F43FF3B0BD002280ED06AB10878000654
:100C200026D5C888009082420AD9088218E00E7240
:100C3000F8BD20680672F8BD4FF008000872F8BDD4
:100C40000ED22868144B90F82C00824201D21F70FB
:100C500006E0B2FBF0F400FB142008B90120187084
:100C6000286890F82C008882BDE8F840FFF79EBE07
:100C700003200872094900030880F8BDC400002061
:100C8000C800002009280008005000407002002021
:100C90009D270008E1270008BC000020D2000020AA
:100CA000704700F071BE00F0AFBE00002DE9F047C4
:100CB0001C4A02274FF00108106A04261A4D696881
:100CC00031EA00032CD0D26901439408A946696037
:100CD00000F0B2FA0546D9F80400411C03D0C04325
:100CE00000F02CFA0546E04340070DD0E00700D1A4
:100CF0008046A00700D40027600700D400263246B3
:100D00003946404600F092FB042D09D1074801689E
:100D1000074A01F4E06111430160BFF34F8FFEE722
:100D2000BDE8F08700200240200000200CED00E02C
:100D30000400FA05F8B505460024042000914A0590
:100D400003D0012202EBD12606E0CE0A04E005EB37
:100D5000C42000F0AFFA641CB44202D20428F6D0DA
:100D600001E0042801D00120F8BD0020F8BD0000FA
:100D7000064A0020082111606FF0FF015160044A0B
:100D8000126A914300D0012070470000200000202B
:100D90000020024004480349416004494160352174
:100DA000C16070472301674500200240AB89EFCD49
:100DB00030B599B00C46054604F07EF8ACB16B46F0
:100DC0006422294604F092F85C21684601F008FE8E
:100DD0000546642269462046FFF707FAE06DA842FF
:100DE00003D1216EC943884202D0012019B030BD21
:100DF0000020FBE72DE9F04300259BB02F4604F0CF
:100E00005BF881461E481990002669464FF4002081
:100E1000FFF7CEFF18B101201BB0BDE8F083119899
:100E200011998008890700D0401C8400FFF7B2FFA9
:100E300021461998FFF77EFF4FF4805817E042468D
:100E4000944203D34546A4F5805402E00CB12546F4
:100E5000002431030B4B484604F048F8AA0809491E
:100E600019A800F013F808B1012702E0761C002C45
:100E7000E5D10548016941F0800101613846CBE7C1
:100E800000800008A0020020002002402DE9F0416F
:100E900017460E4605460024DFF83C8015E056F85C
:100EA0002410286800F06EFA042802D00120BDE862
:100EB000F081286856F824100068884201D002208A
:100EC000F5E72868001D2860641CBC4202D229682E
:100ED0004145E4D90020EAE7FBFF03082DE9F04192
:100EE0000F46804603F0E8FF154C054637B34FF434
:100EF000805623463246414603F0F8FF64223946C5
:100F00002046FFF772F95C21204601F069FDE0659B
:100F1000C043206632464146284603F04CFF234634
:100F200032464146284604F0FBF823463246414605
:100F3000284603F0DBFF0020BDE8F0810120FBE73D
:100F4000A002002010B50C46012202F05FFD2278BD
:100F50000D2802EB4201084A02EB8101A1F5805104
:100F600081F8C00D06D0002804D12046BDE810400D
:100F700000F05CB810BD00006C1500202DE9F043B6
:100F800093B0054623481190332012901E46904698
:100F9000DDF86890294601A802F032FE040026D050
:100FA00031E01198007808B1119801E00DF1350099
:100FB0009DF83410C90601D5042424E000902B4686
:100FC00015A24946304601F085FE41463046FFF7FE
:100FD00030F9074612A13046FFF72BF9044611A15C
:100FE0003046FFF726F90FB104B130B104240BA944
:100FF00001A802F0DBFE10B105E00024F7E79DF840
:1010000035000028CDD101A802F0EFFC13B0204636
:10101000BDE8F0831015002025732F25730D0A00FD
:1010200062696E0032746F3100000000F0B5A3B049
:101030000546FFF71CF984B2202119A8FFF7EEF846
:101040002246294619A8FFF706F93948FFF70FF994
:10105000024619A820443649FFF7C7F840200090FF
:10106000344B334A202119A8FFF788FF00285CD1B0
:101070003049012201F1740002F0F6FC002854D13D
:101080000446219003F018FF07464FF48056294884
:1010900021AB32462849743002F0FAFD05001AD11E
:1010A0002198C0B1250332462946384603F083FE15
:1010B0002198B04206D2204AC0F580511044CC227B
:1010C000FFF7A5F81C4B32462946384604F028F8AD
:1010D000641CA4B2DBE71748743002F073FC21985B
:1010E000054322D1134802F0CBFE64216846FFF786
:1010F00095F810484FF4002474306946C068119088
:1011000001201590C01E16902046FFF7E7FE6421CF
:101110006846FFF783F869462046FFF749FE40F628
:10112000B83002F0FDF800F0D3FA23B0F0BD0000B3
:1011300073540008D0140020A00200202DE9F047CD
:10114000040004D140F2D63127A001F0F7FEE043BD
:10115000C7B2C0F30726C0F30745040E4FF4005989
:10116000484600F0CBF904283BD1DFF8C0802E4A76
:10117000C8F808202E4AC8F80820D8F8102042F0F5
:101180001002C8F81020FF2F06D02A4807804846D2
:1011900000F0B4F904281BD1FF2E07D02548801C8D
:1011A0000680484600F0AAF9042811D1FF2D07D087
:1011B0002048001D0580484600F0A0F9042807D10A
:1011C000FF2C07D01B48801D0480484600F096F98C
:1011D000052806D0D8F8102041F6EF731A40C8F859
:1011E0001020BDE8F08700002E2E5C4C6962726111
:1011F000726965735C53544D3332463130785F53B6
:1012000074645065726970685F4472697665725C77
:101210007372635C73746D3332663130785F666C01
:101220006173682E630000002301674500200240BF
:10123000AB89EFCD08F8FF1F70B5A52500F098F831
:1012400000B100254FF43026304600F057F904284D
:1012500027D1154C1348A0601448A060206940F0C5
:1012600020002061206940F040002061304600F0FD
:1012700045F941F6EF7604280ED1206941F6DF7179
:1012800008402061206940F0100020610848058076
:101290004FF4005000F032F9052802D021693140A6
:1012A000216170BD2301674500200240AB89EFCD6D
:1012B00000F8FF1F70B505461149A0F10060884293
:1012C00004D340F2A7110FA001F038FE4FF43026EE
:1012D000304600F013F9042811D11A4C206940F06F
:1012E000020020616561206940F0400020613046C5
:1012F00000F004F9216941F6FD721140216170BDD1
:10130000FFFF0F002E2E5C4C69627261726965737B
:101310005C53544D3332463130785F5374645065BA
:10132000726970685F4472697665725C7372635C3F
:1013300073746D3332663130785F666C6173682E1A
:10134000630000000020024008490420CA68D20758
:1013500001D001207047CA68520701D502207047AA
:10136000C968C906FBD50320704700000020024071
:1013700003490020C969890700D501207047000092
:10138000002002402DE9F84304460E46002000905C
:101390001449A4F10060884204D340F2AF2112A0A6
:1013A00001F0CCFD4FF40057384600F0A7F80428B0
:1013B00016D11D4D286940F0010028612680B846ED
:1013C000384600F09BF8BF1E042806D1A41C300C40
:1013D00000942080404600F091F829693940296145
:1013E000BDE8F883FFFF0F002E2E5C4C696272612E
:1013F000726965735C53544D3332463130785F53B4
:1014000074645065726970685F4472697665725C75
:101410007372635C73746D3332663130785F666CFF
:101420006173682E63000000002002402DE9F04146
:1014300015460C460646012805D026B140F2634108
:101440001AA001F07BFD022C05D024B140F26441CA
:1014500016A001F073FD042D05D025B140F26541C1
:1014600012A001F06BFD224F2048B8602148B860FF
:101470004FF40058404600F041F8042813D1386971
:1014800040F0100038612C431B48344344F0F8010D
:101490000180404600F032F8052804D0396941F651
:1014A000EF7211403961BDE8F08100002E2E5C4CD6
:1014B00069627261726965735C53544D33324631AF
:1014C00030785F5374645065726970685F44726904
:1014D0007665725C7372635C73746D33326631303F
:1014E000785F666C6173682E6300000023016745B6
:1014F00000200240AB89EFCD02F8FF1F00B5034684
:10150000FFF722FF02E0FFF71FFF5B1E012803D059
:10151000002B00D1052000BD002BF4D1FAE700001C
:10152000012202490248FFF70DBD00007054000877
:10153000A01200200549096889B201EBC0000449E6
:1015400001EB4000008980B270470000505C004011
:10155000006000400549096889B201EBC0000449F8
:1015600001EB40008089C0F309007047505C0040E7
:1015700000600040044901EB8000D0F8000CC0F38B
:101580000130000370470000005000400449096822
:1015900089B201EBC000034931F8100080B27047F6
:1015A000505C00400060004008B1044870470449A6
:1015B0000120096808820020704700000402002012
:1015C000C40000200A4810B50168001D0468001D11
:1015D000006808180BD00822064900F03DF80549BC
:1015E00020460422BDE81040103100F035B810BD8F
:1015F000E8F7FF1FAE010020FEE7000010B5134C16
:101600002068017A022904D0042902D0062905D0D5
:1016100015E0FFF7CBF92068007A11E04178052941
:1016200009D10178490606D1C07800F0C9FE084802
:101630000068006A80470748006880688047082083
:1016400021680872BDE8104000F0DCBAC400002038
:10165000CC000020C8000020F0B500230A2430256B
:1016600037261F4610E0B4EB107F02D905EB107C43
:1016700001E006EB107C01F813C001EB430C000104
:101680005B1C8CF80170DBB29342ECD3F0BD000020
:101690000C4910B508680C4A1040B0F1005F0FD13A
:1016A00072B64868094C60606068A060002080F3F2
:1016B00014880868FEF74FFDA068BDE81040004799
:1016C00010BD0000008000080000FE2FA8000020D0
:1016D00000F028FB72B605480168054A01F4E06194
:1016E00011430160BFF34F8FFEE700000CED00E0F7
:1016F0000400FA0502460121014800F0A5BA0000E5
:101700000008014002464FF40071014800F09CBA05
:101710000008014010B508B1012010BD02F08AFD9B
:101720000849094A08440849400A121F08604FF452
:1017300000711160410204480022001DC0E900123E
:10174000104610BD00F0EFFFDC00002010B508B11E
:10175000012010BD02F074FD80B210BD10B511461D
:10176000DDE9022320B902F091FD10F0FF0000D066
:10177000012010BD10B51146DDE9022310B902F0B9
:1017800095FD0CB1012010BD002010BD0D4900B524
:1017900009680A7802F07F02212A08D1FE2806D1C2
:1017A000488820B9888810B9C888012801D002204B
:1017B00000BD0548886100204882FFF7F5FE002043
:1017C00000BD0000C4000020A9150008014900F078
:1017D000F9BF000010020020014900F0F3BF000033
:1017E0000802002005490968C978052901D90020A7
:1017F0007047034A02EBC10100F0E4BFC4000020BF
:101800004802002009B9002800D0022070470000DB
:101810000F4910B509680A7802F07F02212A07D122
:10182000FF2805D1488818B9888808B9C88808B140
:10183000022010BD0120FFF795F80220FFF77EF887
:1018400005490448086005490020087010BD0000E3
:10185000C400002055534243601A0020A00100201C
:1018600070B530480025314985722F480968C07924
:101870004872284600F09CFD4FF40071002000F0F3
:1018800053FE2021002000F037FE1821002000F038
:10189000BBFD274C002014F82C1F00F0C5FD58217B
:1018A000002000F00BFE0020FFF770F8002000F091
:1018B000F3FD0021012000F037FE9821012000F007
:1018C000FDFD2021012000F017FE0021012000F085
:1018D000CBFD0021022000F027FED821022000F0DD
:1018E00093FD2178022000F09FFD4FF4405102202B
:1018F00000F0BAFD0021022000F0FEFD217800205A
:1019000000F092FD002000F0C7FD002000F058FD1F
:10191000084901200860094907480860084805701F
:1019200070BD000004160020E2590008C400002029
:10193000180200209802002055534243601A0020EC
:10194000A00100207047704710B5FFF73BFE054827
:1019500000240068847200F091F901F0E9F802486F
:10196000046010BDC400002098020020044805490E
:101970000068884202D00220FEF708BE70470000CF
:10198000601A0020555342431C4910B5087840F0B6
:10199000100008701A4B1878022819D04FF44054E0
:1019A000032824D0042801D0052825D10020187050
:1019B0002146022000F058FD0220FFF7DBFDB0F5C4
:1019C000805F19D12146BDE81040022000F04CBDD7
:1019D0000C48C27B282A0FD10A7842F002020A7012
:1019E000D3E90112407BBDE8104000F017BB012194
:1019F000002000F0FBFDE5E710BD0000E90000203D
:101A0000A0010020601A002070B5194E307840F017
:101A100010003070174C0220A4F14001E57B01F06A
:101A200097F815494880087818B1012805D0022098
:101A300006E0BDE87040FEF7C9BD2A2D0DD001209B
:101A4000FEF7A4FD607B2422052100F0EFFDBDE838
:101A500070400021022000F0C9BD307840F0010044
:101A600030708A68607B4968BDE8704000F0BEBB9A
:101A7000E9000020601A0020A0010020094810B5EC
:101A80000068807A00280BD00749052008600120F3
:101A9000FEF768FF0220FEF751FF0449002008709E
:101AA00010BD0000C400002098020020A00100200A
:101AB000014904200860704798020020FEE7704743
:101AC0007047000070B52F4D296808784C784206A1
:101AD00006D000F07F00012828D002282BD035E066
:101AE000092C06D0052C07D0032C0ED0012C14D0C5
:101AF0002CE000F0D3FE28E0C8787F282ED8887824
:101B000060BB888850BB887A27E0C87801281DD13F
:101B10008888D8B900F0DEFE17E0C878012815D112
:101B2000888898B9487A80060AD40FE00B2C0DD12A
:101B300000F026FF09E0012C02D0032C03D005E0C1
:101B400000F0AEFD01E000F0D7FE58B10E4920468E
:101B5000096849698847032802D018B108200DE0B8
:101B600009200BE0094A062000211268084B1204E4
:101B700003EBD2325160074A302111802968087284
:101B800070BD0000C4000020C8000020505C004070
:101B900000600040D400002010B50F4C2068007A8F
:101BA000022811D004280FD0032804D0052802D021
:101BB000072805D008E0FEF753FF2068007A04E00C
:101BC00006480068C0688047082021680872BDE8A0
:101BD000104000F017B80000C4000020C80000202A
:101BE000064B521C520803EB410105D031F8043B6F
:101BF00020F8023B521EF9D17047000000600040FF
:101C0000704700000C4810B590F82C10002000F030
:101C10000BFC0A480068007A082802D0092809D07D
:101C200006E007494FF480500880064910200880DC
:101C3000002010BD012010BD18020020C4000020AB
:101C4000D2000020D400002038B50546ADF80010C1
:101C500001200C468DF802003AB104208DF80300F3
:101C60006946284600F0FEFA38BD10208DF80300C2
:101C70006946284600F0F6FA6C6138BD10B50120BF
:101C800000F009FF0648012101600021054A0160BA
:101C9000031D19604FF4E05111800160002010BD58
:101CA000405C0040D000002070B504460C480D4652
:101CB000044200D124B940F269410AA001F03EF982
:101CC000174E4DB1012D04D040F26A4105A001F03C
:101CD00035F9F069204301E0F069A043F06170BD7F
:101CE000003601812E2E5C4C6962726172696573E7
:101CF0005C53544D3332463130785F5374645065D1
:101D0000726970685F4472697665725C7372635C55
:101D100073746D3332663130785F7263632E6300A3
:101D2000001002400C48016841F001010160416867
:101D30000A4A114041600168094A11400160016886
:101D400021F480210160416821F4FE0141604FF4DB
:101D50001F01816070470000001002400000FFF882
:101D6000FFFFF6FE10B5040006D0012C04D040F2AF
:101D7000DB2103A001F0E2F81048C0F8D84010BD04
:101D80002E2E5C4C69627261726965735C53544DAE
:101D90003332463130785F537464506572697068CD
:101DA0005F4472697665725C7372635C73746D33E1
:101DB00032663130785F7263632E63000000424206
:101DC00010B59AB04FF4002469462046FEF7F0FFA4
:101DD000002809D1FEF7DEFF1598012804D1FEF78F
:101DE000C7FF18B1FEF762FF1AB010BD00201690B1
:101DF000159069462046FFF771F869462046FEF7C0
:101E0000D7FFFEF7F7FF0028EED1FFF741FCEBE725
:101E10007CB5344C0546344E207810B101280CD0E6
:101E200053E056F82500A1FB0031C4E90631A2FBBE
:101E30000010C4E908100120207061682B4859B1D6
:101E4000E16840220144812000F094FE606840383F
:101E50006060E06840301AE036F8251089B2CDE9BC
:101E60000001D4E906232846FFF778FC10F0FF0FA5
:101E700003D0607840F00800607040221B49812048
:101E800000F078FE56F82500403860604020E060A1
:101E90004021012000F022FB3021012000F02CFB2A
:101EA000D4E906024021411842F10000C4E90610BD
:101EB000D4E908026FF03F01411842F1FF30C4E954
:101EC00008100B49886840388860D4E90801084345
:101ED00007D16060E060C4E90600064A0321117082
:101EE00020707CBDE8000020D800002020160020D3
:101EF000801A0020A001002070B5184C1A4454F834
:101F00002040A2420DD92A2902D10220FEF73EFB31
:101F10000020FEF73BFB124A05212120917010732F
:101F200011E0114D0F4C55F82000A2685843824231
:101F300011D02A290DD00020FEF728FB607B242237
:101F4000052100F073FB0021012000F04FFB002071
:101F500070BD0220F0E7012070BD0000DC00002011
:101F600079010020601A0020D800002010B5FFF78A
:101F7000D1FB00280ED008483A220221407B00F015
:101F800055FB0121084600F031FBBDE81040002060
:101F9000FEF7FCBA10BD0000601A002008490A7C58
:101FA000D20702D00748052105E030B10648C97CB8
:101FB000242900D9242100F047BD0448F7E7000098
:101FC000601A002020010020490100202501002086
:101FD00010B50B4CA06810B1207B000601D5002085
:101FE00000E00220FEF7D2FA607B2022052100F0FB
:101FF0001DFB0021BDE81040012000F0F7BA0000F1
:10200000601A00200821014800F01EBD7101002067
:102010000421014800F018BD6D0100202DE9F041B8
:10202000164C8046154620780E4630B1022823D142
:102030004046BDE8F041FFF7EBBE114F13460A469C
:10204000787B2821FFF758FF002815D0387B000641
:102050004FF0020003D520702A463146E8E7FEF72C
:1020600095FA787B2422052100F0E0FABDE8F041E2
:102070000121084600F0BABABDE8F081A0010020B5
:10208000601A002010B50446FFF744FB70B11548F4
:102090003A220221407B00F0C9FA0121084600F0F3
:1020A000A5FABDE810400020FEF770BA0E480F49AF
:1020B00050F82420521E100E0870100C4870100AA0
:1020C00088700B48CA7050F82400020E0A71020C86
:1020D0004A71020A8A71C871BDE81040082103489C
:1020E00000F0B2BC601A0020DC0000208B01002050
:1020F000D800002010B50446FFF70CFB70B114485F
:102100003A220221407B00F091FA0121084600F0BA
:102110006DFABDE810400020FEF738BA0D480E49B0
:1021200050F82420100E0871100C4871100A8871A4
:102130000A48CA7150F82400020C4A72020A8A72D4
:10214000C872BDE810400C21034800F07DBC0000BF
:10215000601A0020DC00002093010020D80000203D
:102160000348C17C122900D91221024800F06CBC3E
:10217000601A0020790100200121002000F036BA09
:1021800010B5FFF7C7FA70B10A483A220221407B26
:1021900000F04CFA0121084600F028FABDE8104092
:1021A0000020FEF7F3B90121BDE81040002000F047
:1021B0001DBA0000601A002010B50B4CA06828B9A9
:1021C000207C400702D40121002009E00220FEF714
:1021D000DDF9607B2422052100F028FA002101208E
:1021E000BDE8104000F002BA601A002070B5174C2C
:1021F0001346227832B1012A26D1BDE870401A4632
:1022000000F0E0BC124D0A462A21687BFFF774FEFD
:10221000002819D0287B000608D401202070BDE8D2
:1022200070404FF44051022000F01EB90020FEF72C
:10223000ADF9687B2422052100F0F8F9BDE8704073
:102240000021012000F0D2B970BD0000A0010020E3
:10225000601A002002464FF480610148FFF7F4BC89
:1022600000080140F0B5002201250F260B88D3405D
:10227000DB0732D0CB78DC0605D58C7803F00F0372
:102280002344DCB213E0022703F00F04B7EB131F63
:1022900004D1C36805FA02F7BB4307E00427B7EB94
:1022A000131F04D1C36805FA02F73B43C360082A31
:1022B00009D20768930006FA03FC27EA0C079C4042
:1022C0003B19036009E09300203B476806FA03FCD2
:1022D00027EA0C079C403B194360521CD2B2102ADB
:1022E000C4D3F0BD2DE9F047044699461746884609
:1022F000234D084600F046F802220020AA4629464F
:1023000002F088FA05460E463846FDF7B7FF2A4622
:102310003346FDF7C1FF24D202220020514602F0CD
:1023200079FA05460E464846FDF7A8FF2A46334689
:10233000FDF7B2FF15D2C8F104008740A00800F1F4
:10234000E02007EB090290F8003404F003050421B3
:1023500001EBC5010F258D40AB438A40991880F8E9
:1023600000146009800000F1E020D0F8001104F0B2
:102370001F0301229A401143C0F80011BDE8F08705
:102380000000F03F04280BD806490A684FF6FF0307
:102390001A40C0F1070002EB0020034A1044086015
:1023A000704700000CED00E00000FA0570470000E7
:1023B000024920F00700086070470000505C0040B0
:1023C000F0B50E490E4E48F68F770D78002148F291
:1023D000800C0BE0CAB206EB8203D3F8004C3C4001
:1023E000144344EA0C04C3F8004C491CA942F1D33D
:1023F000044940F080000860F0BD00007002002039
:10240000005000404C5C0040054A21F00101126878
:1024100092B202EBC000034A02EB400081607047B9
:10242000505C0040006000400D4A12683E2992B2A4
:1024300002EBC0000B4A02EB400209D94809C90669
:1024400001D1401E80B24FF4004141EA802004E0F7
:102450004808C90700D0401C800210607047000087
:10246000505C00400C60004082000A480244D2F8F0
:10247000000C4BF68F731840CB0401D580F48050CC
:10248000890401D580F4005048F280010843C2F865
:10249000000C704700500040810007480844D0F805
:1024A000001C4BF68F72114081F4405148F28002BB
:1024B0001143C0F8001C704700500040054A21F04D
:1024C0000101126892B202EBC000034A42F81010F8
:1024D00070470000505C004000600040044A1268F1
:1024E00092B202EBC000034A02EB40004160704729
:1024F000505C00400060004082000A480244D2F86C
:10250000000C48F6BF731840CB0601D580F01000D0
:10251000890601D580F0200048F280010843C2F806
:10252000000C704700500040820005481044D0F86D
:10253000002C48F68F131A400A43C0F8002C70474D
:10254000005000400CB5002226480092019201681C
:1025500041F4803101604FF4A063016801F400315F
:1025600001910099491C0091019911B90099994272
:10257000F3D10168890333D5012101911A490A6811
:1025800042F010020A600A6822F003020A600A6838
:1025900042F002020A60416841604168416041685E
:1025A00041F480614160416821F47C1141604168DF
:1025B00041F4E8114160016841F0807101600168F7
:1025C0008901FCD5416821F003014160416841F077
:1025D000020141604168C1F381010229FAD10CBDB9
:1025E00001920CBD001002400020024010B50D4ABF
:1025F0000C460B49116010730D220A49812000F02E
:10260000B9FA09480521002C017007D00421017096
:102610003021BDE810400120FFF76EBF10BD000063
:1026200055534253801A0020A001002001488170B8
:10263000027370477901002070B516480068174D85
:102640000004C10B14480144098989B200EB41041C
:102650002868017A09290FD02178017061784170CA
:10266000A088FDF7ADFF296848802089FDF7A8FF05
:1026700029688880A089C880286801210172C088E3
:1026800028B1FEF73FFABDE87040FFF7BBBAFFF78D
:1026900019FAF8E7505C004000600040C4000020D8
:1026A0002DE9F04138480068017811F07F0102D02F
:1026B000022905D066E0417A01F0DF0141724EE067
:1026C000418800295ED10179F1BB4179304D21F07B
:1026D00080040A0605EB84022C4BD2F8002C03D5AB
:1026E000C2F30112120102E0C2F3013212031E789A
:1026F0002346A64246D93AB3807A28B308064FEA61
:1027000084000ED52844D0F8000CC0F30110012835
:1027100021D11846FEF726F920463021FFF7ECFEBE
:1027200019E04619D6F8000CC0F30130012812D187
:102730004BF68F7748F28008A4B11846FEF7FEF8F2
:10274000D6F8000C384000E01CE080F4405040EA2D
:102750000800C6F8000C0F48006840698047002058
:10276000BDE8F0810C4890F82C100020FFF75CFECB
:10277000D5F8000C384080F4405040EA0800C5F815
:10278000000CE8E70220EBE7C40000207002002004
:1027900000500040CC0000201802002010B5074C6B
:1027A00030B1074800680068804720680A3010BDD3
:1027B000216801200882002010BD0000C400002014
:1027C000CC000020054A13685A8A10B108681044EA
:1027D00070478888801A188200207047C400002043
:1027E00010B5074C30B10748006880688047206802
:1027F0000C3010BD216801200882002010BD0000AF
:10280000C4000020CC000020204910B5096860B148
:102810001F48002202800A7853060AD002F07F0285
:10282000012A16D0022A16D001E0022008820020D8
:1028300010BD497A8A06027802D542F0020201E010
:1028400002F0FD0249060270D1B211D401F0FE017E
:1028500010E00F4810BD49790A070B060D4901EB3E
:102860009261D1F8001C07D5C1F3011106E001788F
:1028700041F00101017003E0C1F301310129F6D0FB
:102880000548006800698047E3E70000C4000020B5
:10289000BE00002000500040CC0000200A4810B5C7
:1028A00000680A4AC1785278914203D882780AB9FE
:1028B00082880AB1022010BD817205480068406814
:1028C0008047002010BD0000C400002070020020DE
:1028D000CC000020064810B50068417A41F0200184
:1028E000417204480068C0698047002010BD0000A4
:1028F000C4000020CC00002070B51D481D4D0268AA
:10290000517921F0800005EB80000B06D0F8003CE7
:1029100021F0800403D5C3F301131B0102E0C3F3CC
:1029200001331B03144D2D78A54210D9548874B976
:102930006BB1927A5AB10906D0F8001C48F28002B5
:1029400007D548F6BF73194081F0100106E0022058
:1029500070BD4BF68F73194081F480511143C0F85C
:10296000001C0648006880698047002070BD000098
:10297000C40000200050004070020020CC00002065
:1029800010B50E4C0E4A20681268C17892694079E1
:10299000904721688A7A22B118B9087908B98878ED
:1029A00008B1022010BD07480068C0688047206851
:1029B0004179C172C1780173002010BDC4000020AC
:1029C000C8000020CC000020AFF30080034841681D
:1029D000491C416001210170704700001400002073
:1029E000034610B50020024602E09C5C521C2044C5
:1029F0008A42FAD310BD00000F4810B5016841F0BB
:102A00000101016041680D4A1140416001680C4AB2
:102A100011400160016821F480210160416821F4C6
:102A2000FE0141604FF41F018160FFF78BFD0549F6
:102A30004FF00060086010BD001002400000FFF879
:102A4000FFFFF6FE08ED00E010B50C460A46014611
:102A5000812000F08FF830210120FFF74DFD05495E
:102A60000320087004488168091B816000210173FC
:102A700010BD0000A0010020801A00200020FEF7F9
:102A800065BE10B50020FFF76DF90121BDE81040CB
:102A9000C805FFF709B97047FDF764BE0649054848
:102AA000022208600272064A0448C1E90102006875
:102AB0000047000004160020C40000201802002077
:102AC0007402002010B50023022204211420FFF715
:102AD00009FC002301220421BDE810401320FFF768
:102AE00001BC000070B50D4D28680D4C2080208879
:102AF0000C4E31880840000401D5FDF773FE208894
:102B000031880840400507D54FF6FF302860064859
:102B10004068BDE87040004770BD0000445C004064
:102B200000020020D000002018020020FFF7DABFCA
:102B300005490020086005494FF404400880024917
:102B4000091F086000207047445C0040D00000204E
:102B500070B500F07F060D463046FEF7FBFC0446DC
:102B60003046FEF7E7FC014622462846FFF738F8D4
:102B7000204670BD70B500F07F0514460E4628460D
:102B8000FEF704FD0146A2B2304600F007F8A1B2FC
:102B90002846FFF7A3FC002070BDFEE7084B10B5E8
:102BA000521C520803EB410109D010F8013B521EA0
:102BB00010F8014B43EA042321F8043BF5D110BD82
:102BC000006000402DE9FC5F3B4D8246AC682878F0
:102BD0003A4B4FF0000B403410B101280CD059E0B3
:102BE00053F82A00A1FB0016C5E90A16A2FB000152
:102BF000C5E90C01012028705A46314EDFF8C4C0E7
:102C0000C5F810B009E02869AF681CF80010F1554C
:102C1000401C2861A868401CA860A868A042F2D3A4
:102C20002948D5E90A170088904609185741C5E98F
:102C30000A178946D5E90C41201A61EB0801C5E95C
:102C40000C0153F82A4000232246FDF79DFA1A434F
:102C500015D14046A846A860A1B2CDE90061B9EB04
:102C6000040267EB00035046FEF784FD10F0FF0FEF
:102C700005D098F8010040F0040088F801001349DD
:102C800011488A680088101A88604FF44051022069
:102C9000FFF7EAFBD5E90C01084303D00C480078A4
:102CA000042807D15C46C5F808B001210020FFF7D1
:102CB0009DFC2C70BDE8FC9FE8000020D80000209F
:102CC00020160020201A0020A2010020801A0020D7
:102CD000A00100200FB41CB50246002007AC00295B
:102CE0000BD0491ECDE90021054B6A4621460698C6
:102CF00000F02EF8009A002111701CBC5DF814FB46
:102D0000272E000840F2013200204FF0E041FDF78D
:102D100057BB0000024A00201107FDF751BB00001D
:102D200001FDFFFF02E008C8121F08C1002AFAD106
:102D300070477047002001E001C1121F002AFBD13B
:102D40007047000001490860704700009C020020A5
:102D50002DE9F84F9946924688460546002706E039
:102D600025280AD051464A4690476D1C7F1C28787A
:102D70000028F5D13846BDE8F88F002315F8011F6B
:102D800018462E2915D115F8011F04232A290DD024
:102D90006FF02F022978A1F13004092C09D800EB3B
:102DA000800002EB400008446D1CF3E758F8040B68
:102DB0006D1C2A78002ADDD0632A07D0732A0FD031
:102DC000104651464A4690477F1C2AE018F8042BCB
:102DD0008DF8002000218DF801106E46012103E0DE
:102DE00058F8046B4FF0FF315A074FF0000401D43C
:102DF00009E0641C84420BDA8C42FADB325D002A63
:102E0000F7D105E0641C8C42FCDB305D0028F9D171
:102E1000274404E016F8010B51464A469047641EC9
:102E2000F8D26D1CA3E74A68002A06D00A68531C32
:102E30000B6010704868401E486070472DE9FE4FD7
:102E4000824600F1200816460F46006931441D46AF
:102E50004FF00109814202D90520BDE8FE8FD8F864
:102E60000810404601B18847F8070CD0284639467B
:102E7000012300906D1C7F1C1A46504601F04EFD48
:102E8000040050D1761E0121504601F02DFF0400B0
:102E900049D1AD208DF804000DF1040B30E0B9F1FB
:102EA000000F13D05C46621C3946504601F0F7FC17
:102EB0009AF8350008B1052200E004222878A054D1
:102EC000A118687848704FF0000906E028788DF85E
:102ED0000500687801228DF806000020009000238C
:102EE000D8F80440404601A9921CA04704001AD11A
:102EF000504602F05FFA040015D1AD1CB61EBF1C8F
:102F0000022ECCD20021504601F0EEFE04000AD180
:102F1000012E0CD101231A4639465046009501F086
:102F2000FDFC040003D00021504601F0DDFED8F87E
:102F30000C10404601B1884720468EE7FEE70000AE
:102F400010B50446002084F80402401EC4F82C0288
:102F5000204601F0C8FC08B1032010BDB4F8FE0102
:102F6000A0F52A41553901D0022010BD94F8360051
:102F7000B4F8371040EA01210848B0EB012F08D01F
:102F800094F85210B4F8532041EA0221B0EB012F1B
:102F900001D1002010BD012010BD000000464154A9
:102FA00000E0401C02780AB18A42FAD1D0B27047E0
:102FB000F0B50022164E154602EB420356F82340A8
:102FC0006CB10768BC420BD106EB830387685C6871
:102FD000BC4205D11B89C488A34204D000E001256E
:102FE000521C032AE8D3032A01D079B904E05DB961
:102FF000022909D01220F0BD02EB420006EB80004E
:103000004089B0F5807F01D00020F0BD1020F0BDD8
:103010007815002030B50021064B0C4601EB41022B
:1030200053F82250854201D143F82240491C03291C
:10303000F4D330BD78150020D0F81422891E921EDA
:103040008A4201D800207047D0F8282290F8020266
:1030500001FB002070472DE9F0410F00064606D025
:1030600001F0DAF902280BD20120BDE8F081D6F890
:103070000C521DB1D6F81402A84208D8012506E06A
:10308000411CF2D0D6F814128142EED83D462C46AF
:10309000D6F81402641CA04202D80224022D0AD3DE
:1030A0002146304601F0B8F938B1411CDDD0012885
:1030B000DBD0AC42ECD10020D7E76FF07042214664
:1030C000304601F09FFC30B957B1224639463046B0
:1030D00001F098FC20B1012812D001242046C4E759
:1030E000C6F80C42D6F81002411CF7D0401EC6F8B4
:1030F000100296F8050240F0010086F80502EDE79F
:103100004FF0FF34EAE700002DE9F35F88460D68D1
:1031100000E06D1C28782F28FBD05C28F9D000989F
:1031200000242646D0F82090A85D761C202815D3D0
:103130002F2813D05C2811D0322C2FD2012100F07F
:10314000F3FE07002AD0802F04D201465FA0FFF7CC
:1031500027FF18BB29F81470641CE5E7AA19C8F802
:103160000020202801D2042616E0002614E009EBF6
:10317000440030F8020C20280DD02E280BD06CB162
:10318000002129F8141000980B222021806901F0F9
:10319000A3FB002706E0641E002CE8D10620BDE852
:1031A000FC9F7F1C39F817002028FAD02E28F8D071
:1031B0001FB146F0030600E0641E2CB109EB440089
:1031C00030F8020C2E28F7D14FF0000AD0464FF00D
:1031D000080B39F817507F1C05B3202D03D02E2D76
:1031E00004D1A74202D046F00306F2E7DA4501D245
:1031F000A74219D1BBF10B0F0ED0A74201D046F068
:1032000003060BD84FEA886027464FF0080A4FF0B4
:103210000B0B4FEA1068DCE746F003060098806964
:103220000178E5292ED02FE0802D0CD300212846EF
:1032300000F07AFE050003D02748284410F8805C8F
:1032400046F0020625B1294624A0FFF7A9FE18B1D1
:103250005F2546F003060EE0A5F14100192802D8CB
:1032600048F0020807E0A5F16100192803D8203DC5
:1032700048F00108ADB20098816901F80A500AF1DE
:10328000010AA6E705210170BBF1080F03D14FEA3F
:1032900088604FEA1068C8F38100032803D06FEA02
:1032A0000801890701D146F00206B10709D408F0E8
:1032B0000301012901D146F01006012801D146F091
:1032C000080600988069C672002068E7222A3A3C06
:1032D0003E3F7C7F00000000835400082B2C3B3DC8
:1032E0005B5D0000401E032815D20C4B00EB400232
:1032F00003EB82014889B0F5807F05D008B1401EFC
:1033000080B2488110B104E00020FAE7002043F8C1
:10331000220000207047022070470000781500202E
:1033200018B5134CE16941F00101E16111494FF415
:103330007A720968B1FBF2F2A104521E0A854FF6B7
:10334000FF728A8501228A820A8842F001020A807D
:103350008A8C00928A8C009BD21A8242FAD9088801
:1033600020F001000880E06920F00100E06118BD54
:10337000001002400000002018B5134CE16941F034
:103380000101E1611149124A0968B1FBF2F2A1049D
:10339000521E0A854FF6FF728A8501228A820A88A8
:1033A00042F001020A808A8C00928A8C009BD21A19
:1033B0008242FAD9088820F001000880E06920F0F4
:1033C0000100E06118BD0000001002400000002074
:1033D00040420F002DE9F05F0446002100F08BFA17
:1033E00000287AD1FF254FF6FF70AB46A0842169F3
:1033F000206801F078FA07007CD16669307848B11E
:10340000F17AE52801F03F0169D00A0704D50F29B8
:1034100065D105E004276DE00F2901D08DB34DE0A3
:10342000216A79B3420606D596F80DB020F0400027
:10343000E2880546A284A84236D1727B5A4533D130
:1034400030788A4620F04000401EB14600EB8001F3
:1034500001EBC0064FF000080127284810F80810BB
:1034600001EB0900008877B100F07AFD0746322EA3
:103470001AD23AF81600761C00F072FDB84213D149
:1034800005E016E02FE0A0F57F41FF390CD108F1EF
:103490000108B8F10D0FE0D399F80000400606D5F9
:1034A0002FB13AF8160010B1FF25EDB21BE06D1EEA
:1034B000FBE7304601F0B9FE58451BD0A069C17A40
:1034C000C9070CD10B210022491E07D316F8012B86
:1034D00010F8013BD21AF7D001E00CE052B14FF6E0
:1034E000FF70FF25A0840021204600F009F80700A6
:1034F0003FF47DAF3846BDE8F09F0000035500085B
:103500002DE9F041C78804467F1C38040E46000CA4
:103510002FD0206968B3390762D1401C2061E1686F
:10352000206831B190F80222521E12EA171F05D00E
:1035300056E0B0F80802B8421BD951E000F06CFF29
:10354000054601281AD9681C31D02068D0F8141219
:10355000A9423FD86EB1E168FFF77DFD05000BD0B1
:10356000012D0BD0681C22D0206801F0C6FEF0B9F6
:1035700006E00420BDE8F0810720FBE70220F9E720
:103580004FF400720021206801F0A6F92946206856
:10359000FFF752FD216800264FF00108C1F82C0208
:1035A0000EE080F80482206801F0A7FE08B1012037
:1035B000E0E72068D0F82C12491C761CC0F82C12C9
:1035C000206890F80212B142EBD8D0F82C12891B77
:1035D000C0F82C12E56029462068FFF72DFD206118
:1035E000E780206807F00F0100EB411060610020C8
:1035F000C0E700002DE9F35FFF2504462E460427AF
:103600004FF6FF7A4FF0000B69E0206801F06BF98C
:10361000070068D16269107888B1D17AE52801F095
:103620003F010AD02E2808D021F02003082B08D013
:103630000023DDF804C0634505D0FF2540E00427E2
:1036400051E00123F5E70F2901D0B5BB3FE041066A
:1036500005D5567B20F04000E1880546A184A842AC
:103660002CD1507BB04229D11078DFF8849000F043
:103670003F00401E00EB800101EBC0010020276AE3
:103680000123D44619F800809044B8F8008033B183
:10369000322913D227F811804346491C01E0E04546
:1036A0000CD1401C0D28EDD31078400603D53229EB
:1036B00004D227F811B06D1E01E00DE0FF25EDB238
:1036C00000212046FFF71CFF070008D00BE0104642
:1036D00001F0ABFDB04208D0A4F824A005E02169B8
:1036E000002992D10FB1C4F810B03846BDE8FC9F54
:1036F000035500082DE9FF5F87690446066A0C221E
:103700003946684601F0E0F89DF80B00C00718D074
:103710000020F872012520622B4632466946384661
:1037200000F03CFE2046FFF755FE10B96D1C642DDD
:10373000F2D3642D0BD004280AD19DF80B00F87247
:1037400026629DF80B0080070FD5002004E00720BB
:1037500004B0BDE8F09F401C36F810100029FAD1E3
:103760000D211930B0FBF1F500E0012500212046C4
:1037700000F0C1F888B900272169206801F0B3F88A
:1037800058B961690978E5290AD049B100270121B2
:103790002046FFF7B5FE0028EED0042804D004E050
:1037A0007F1CAF4201D0F2E7072006006DD16D1EED
:1037B00051D0E088411B204600F09DF8060064D1FE
:1037C000A06901F032FD4FF6FF7A0390216920686D
:1037D00001F089F8060058D16169D4F82090039867
:1037E00048730F20C872002008738876EEB2C8763E
:1037F000701E00EB800202EBC0030022DFF890B0E5
:1038000001F1010801E0504502D039F813005B1CBA
:103810001BF802C001F80C001BF802704FEA102CD4
:1038200007F808C000B95046521C0D2AEBD350458A
:1038300002D039F8130008B946F040060E7021682E
:10384000012081F8040200212046FFF759FE0600FE
:103850001BD16D1EBAD12169206801F044F8060021
:1038600013D120220021606901F036F8D4E9050166
:103870000B2201F029F8A0696169C07A00F01800F4
:1038800008732168012081F80402304660E70000D7
:10389000035500082DE9F041818C0446C688A1F546
:1038A0007F40FF3800D13146204600F024F8050063
:1038B0001ED1E5274FF001082169206801F013F8B7
:1038C000050012D120220021606901F005F860692D
:1038D0000770216881F80482E088B04208D2002194
:1038E0002046FFF70DFE0500E6D0042D00D102258D
:1038F0002846BDE8F08170B5C18083680D46044656
:10390000012B39D02068D0F81412994234D933B938
:1039100090F80012032906D1D0F824321BB190F898
:103920000202060113E0B0F80812A94224D9D0F827
:10393000240212E000F070FD0346401C1AD0022B56
:103940001AD32068D0F81402984215D9AD1B20680C
:10395000B5421946EED2FFF76FFBE36060B100EBB2
:1039600015102061206805F00F0100EB4110606127
:10397000002070BD012070BD022070BD10B5010097
:103980004FF0010004D100F05BFC002800D00120C2
:1039900010BD08B10420704700F05ABC10B503B147
:1039A00008B1042010BD00F019FC002010BD00205B
:1039B000704710B503B108B1042010BD00F02EFC13
:1039C000002010BD10B5044600F01CFA00280BD1F1
:1039D000204601F0DBFC002806D1606AFFF782FC7C
:1039E000002801D10021216010BD10B5044601F06E
:1039F000CDFC002808D1E16921B10846FFF772FC2F
:103A0000002801D10021216010BD00002DE9F741FF
:103A100081B0904602980090684600F0BCFD04001A
:103A200003D50B2004B0BDE8F0810E4E002756F8F8
:103A3000245025B12846FFF7EDFA85F80072019869
:103A4000002801D080F8007246F8240002D0B8F1B6
:103A5000010F01D00020E5E7002202A901A800F033
:103A600091FADFE7B80000202DE9F7478DB0070095
:103A70000ED04FF0000802F01F0626F001020EA93A
:103A80006846C7F8008000F07DFA040004D0B0E07A
:103A9000092010B0BDE8F0870AA8069057480890A2
:103AA00068460E9900F046FC059D04000BD11DB13F
:103AB000700803D0012102E0062404E000216846DA
:103AC000FFF776FA044616F01C0F5DD0DCB1042C2B
:103AD00014D14A490020243902E0401C032805D2B1
:103AE00000EB400251F82220002AF6D1032804D02E
:103AF0006846FFF7FFFD044600E01224059D46F0EE
:103B0000080644B175E0E87A10F0110F46D170074D
:103B100001D508246DE0300746D500F0DEFCA8731F
:103B2000010AE973010C2974000E687485F80B8092
:103B300085F81C8085F81D8085F81E8085F81F801B
:103B40002946009800F05CFE81460021284601F0DD
:103B500064FB00990120B9F1000F81F8040221D023
:103B600000984946D0F82CA201F083F8040040D117
:103B70000099A9F10100C1F80C025146009800F02B
:103B8000B2FE04000CD034E09CBBE87AC10601D53B
:103B900004242EE0B10703D5C00701D0072428E094
:103BA000300701D546F020060098D0F82C02C7E96E
:103BB0000705700801D0012100E00021684600F0EF
:103BC000D5FD7862B8B1BE7187F8078046462946B0
:103BD000009800F015FE3861287FD5F81D1040EAE6
:103BE0000120C7E90260BE6100983860B0F80602A3
:103BF000B88020464DE70224FBE700009C1500201A
:103C000073B584B0040009D0002205A9684600F00D
:103C1000B9F905004FF0000603D024E0092006B0F2
:103C200070BD0098206001A8A0611848206220465D
:103C3000059900F07FFB050012D1616931B1C87AA6
:103C4000C00613D5009800F0DBFDA06000980021AD
:103C5000B0F80602A0802046FFF74DFE050007D011
:103C6000042D03D005B126602846D8E70525FAE7DC
:103C7000A06840B10021204600F078FDE0610028F6
:103C8000F2D11225EFE7E661EEE700009C15002077
:103C90002DE9F05F884600219A46164604461960D1
:103CA00001F074FB00280FD1E07900280CD1A07935
:103CB000C00708D0D4E90210401A4FF0010B864229
:103CC00070D906466EE00720BDE8F09FA068C105E8
:103CD00044D1226892F80212491E01EA502111F0E3
:103CE000FF0709D108B31046616900F095FB02286F
:103CF0001DD3411C3FD0606161692068FFF79CF9CA
:103D0000A8B100EB0709750A26D020687A1990F847
:103D100002128A4200D9CD1B90F801022B464A4676
:103D20004146FFF73BFE30BB04E02069DFE702209D
:103D3000E071C9E7216891F8040258B1D1F82C224A
:103D4000A2EB0900A84205D208EB40204FF4007214
:103D500000F0BAFD6D021BE0C4F818902089C0F392
:103D60000800C0F50075B54200D93546A169206844
:103D700000F0B9FD18B184F807B00120A4E721894B
:103D80002068C1F3080101442A46404600F09CFD2A
:103D9000A068A8442844A060DAF800004119761B06
:103DA000CAF80010002E91D100208DE7FEB50E4616
:103DB000044601F0EBFA002819D1CEB1C4F818D0AE
:103DC0000F48206200212046FFF714FC002504283C
:103DD00013D000280BD13146204600F080FB002193
:103DE0002046FFF78DFB042801D100202561FEBD90
:103DF00000212046FFF77FFDFEBD2561EBE70000B7
:103E00009C15002070B5044601F0C0FA002835D199
:103E1000A179890632D5E169206800F064FD0028A7
:103E20002CD1256AE87A40F02000E872207B2877C0
:103E3000A089000A6877E068000CA877E068000EA7
:103E4000E8772846216901F0E8F900F046FBA875FB
:103E5000010AE975010C2976000E68760020A87425
:103E6000E874A07920F02000A0712168012081F879
:103E700004022068BDE8704001F0E4B970BD0000A4
:103E800031B598B0012218A9684600F07BF80028E7
:103E900016D114A80690234808906846189900F097
:103EA00049FA00280CD102216846FFF781F8002862
:103EB00006D1059D1DB1E87AC00731D102E0062088
:103EC00019B030BD2946009800F09AFC040017D0C4
:103ED000E87AC00614D5282269460AA800F0F4FC46
:103EE00002210AA80C94FFF706FD0028E8D1002162
:103EF0000AA8FFF77FFB98B1042801D00028DFD182
:103F00006846FFF7C7FC0028DAD12CB1214600989B
:103F100000F0AFFE0028D3D1009801F093F9CFE76D
:103F20000720CDE79C150020802804D30B4A51B10F
:103F3000FF2801D90020704702EB4000A0F5805017
:103F4000B0F8000F704732F81130834203D0491C9B
:103F500089B28029F7D38031C8B270471055000864
:103F60000021064B00E0491C33F81120002A04D040
:103F70008242F8D1024830F811007047105600080C
:103F8000F05700082DE9FF474FF000090746C0F839
:103F900000901646084600F0FEFA050003D50B20F7
:103FA00004B0BDE8F0878A4850F82540A4B13C60D1
:103FB00094F8000228B194F80102FFF7F8FCC10759
:103FC0000CD084F80092E8B284F80102FFF7D6FC26
:103FD000C10708D00320E3E70C20E1E70EB140075A
:103FE00004D40020DCE71EB1400701D50A20D7E742
:103FF000002529462046FEF7A3FF012822D10020F4
:104000006E4604EB001191F8C22101F5DF712AB16F
:104010000A7AD1F8091042EA012100E0002146F8AD
:104020002010401C0428ECD3002756F8275025B157
:1040300029462046FEF784FF00E0022040B17F1CA5
:10404000042FF2D3032801D0E8BB01E00120A7E749
:10405000B4F80B00B0F5007F61D1E18A29B994F87A
:104060002400D4F8251040EA0121C4F8181294F86D
:1040700010C084F803C2BCF1010F02D0BCF1020FE2
:104080004DD1667B0CFB01FC84F80262DEB1701E30
:10409000064244D1B4F81120A4F8082210073ED1FA
:1040A000B4F8130028B994F82000D4F8213040EA7D
:1040B0000320E3893BB103EB0C0707EB1217B8426F
:1040C0002DD3C01B00E02AE0B0FBF6F038B3012688
:1040D00040F6F678404500D302264FF6F678404584
:1040E00000D30326801C2F44C4F828722B44C4F844
:1040F0001402C4E98753032E13D082B103EB0C02E0
:10410000C4F82422022E18D000F0010200EB400077
:1041100002EB500000F2FF10B1EB502F0FD20D2038
:104120003EE7002AFBD194F82C20D4F82D308000F3
:1041300042EA0322C4F82422ECE74000EAE74FF009
:10414000FF30C4F81002C4F80C02802084F8050285
:10415000032E30D1208E01282DD12046691C00F07D
:10416000C2FB40BB84F80592B4F8FE01A0F52A41D9
:10417000553920D12078D4F8011040EA01201549A2
:10418000884218D194F8E401D4F8E51140EA0120FE
:10419000114988420FD194F8E801D4F8E91140EAB6
:1041A0000120C4F8100294F8EC01D4F8ED1140EAB3
:1041B0000120C4F80C02064984F80062091F08882F
:1041C000401C0880A4F806022046FEF723FF08E7FB
:1041D000B800002052526141727241612DE9F047EE
:1041E0001E4617460D4600F067FE81460024DFF8A4
:1041F00028804FF4007A0AE0391908EB41212B4658
:104200005246484600F072FE641C05F50075B44243
:10421000F2D30020BDE8F0870010100010B50C4666
:1042200051024FF6FF7202EA4323224600F03EF8A5
:10423000002010BD01480068704700001C000020ED
:1042400010B500F03DFE002800D0012010BD000098
:10425000012089B1012905D002290AD003290DD0F6
:10426000042070470748084900680844400A106065
:1042700002E04FF400701080002070474FF480512E
:10428000116070471C00002000F0EFFF70B51E4663
:1042900014460D4600F010FE0349234632462944D9
:1042A000BDE8704000F022BE001010002DE9F84F6C
:1042B0001D4616460C4600F0FFFDB046260BC4F323
:1042C0000B07C7F580540090A54200D82C46DFF8B4
:1042D0005CB04FF4805A544506D20BEB0631144BB8
:1042E0005246009800F002FE0BEB0631894652461A
:1042F000009800F060FD0E48224638444146FBF726
:1043000074FF49460A4B5246009800F009FFA54247
:1043100009D0281BA044002785B25446761CA5422C
:10432000D9D82C46D7E70020BDE8F88F0010100040
:10433000A002002073B50446019908782F2801D007
:104340005C2801D1491C01910025A56001980078E5
:10435000202805D200212046FFF7CDFA65617CBDFB
:1043600001A92046FEF7D0FE0028F8D12046FFF72D
:1043700031F8A169C97A28B10428F0D14907EED4EF
:1043800005207CBD4907FCD46169C87AC006F7D511
:10439000206800F035FAA060E2E700007CB5164620
:1043A0001C4605460B2200F08FFA052C11D9194A3C
:1043B0000CE00021B61C2346044663F35F0440086A
:1043C000E30300D55440491C1029F4D33088002859
:1043D000EFD107216B4604F00F003030392800D9A7
:1043E000C01D5854491E2409F5D17E20585400227E
:1043F00000E0521C8A4202D2A85C2028F9D1082988
:1044000002D2585C491C00E02020A854521C082A03
:10441000F5D37CBD211001002DE9F0410D46044685
:1044200002290DD3D4F81402A84209D994F8000245
:104430004FF0FF36012807D002282AD0032836D0B3
:1044400001263046BDE8F081D4F8200205EB55077F
:1044500000EB5721204600F046FA0028F1D1C7F3BF
:1044600008007F1C14F80080D4F8200200EB5721CC
:10447000204600F038FA0028E3D1C7F30800215C99
:1044800048EA0120E90701D00609DAE7C0F30B0684
:10449000D7E7D4F8200200EB1521204600F023FADC
:1044A0000028CED1E8B204EB40000688C9E7D4F872
:1044B000200200EBD511204600F015FA0028C0D1EB
:1044C00040F2FF1000EA850020440178D0F8010096
:1044D00041EA002020F07046B3E7002070472DE944
:1044E000F0410D4601F10904016969B300234169F6
:1044F0002E27CA5C5B1C202A18D0052A00D1E52291
:10450000092B01D104F8017BA2F14106192E0BD829
:1045100091F80CC0092B01D3102600E008261CEAF4
:10452000060F01D02032D2B204F8012B0B2BE0D3BE
:10453000CA7A2A720A7FD1F81D3042EA03222A6021
:104540000A8BAA80C98AE9804FF0000884F80080AD
:10455000AF69002F1DD001690024C1B1E969B1B173
:10456000818CA1F57F42FF3A11D0066A0BE0002151
:10457000FFF7DAFC18B1E969491EA14201D800240D
:1045800005E03855641C36F8020B0028EFD107F817
:104590000480BDE8F08110B503464FF0FF301C6881
:1045A000002C13D0214600E0491C0A78202A0ED3A3
:1045B0003A2AF9D114F8012B303A0A2A06D28C4251
:1045C00004D1002A02D1491C1046196010BD0020F8
:1045D00010BD0000FEB5044600F036FD00287CD179
:1045E0002069002604F1200530B1A08A20B1A0691D
:1045F00010B1207F00286BD19F218DF80810032176
:1046000000916F68284601AB012202A9B847002833
:1046100008D19DF8042022739DF8052062739DF84F
:104620000620A27372D1204600F094FCF8B1A66077
:10463000206D2061B4F84800012816D00120A08226
:10464000606DA06194F858002077012004EBC0024F
:10465000516D31B1A3698B4203D9A16192F8581011
:104660002177401C0428F1D32AE00220E7E73E4BE3
:10467000277B002000EB400203EBC20191F804C04D
:10468000BC451BD191F805C094F80DE0F44515D157
:1046900091F806C094F80EE0F4450FD100EB40000D
:1046A00053F83000A06003EBC20080682061888965
:1046B000A0820869A061087D207701E0401CD9D064
:1046C000206910B3A08A00B3A069F0B1207FE0B1E7
:1046D000254900207839237B00E017E001EBC00773
:1046E0003F799F4202D0401C0F28F5D366218DF8F8
:1046F000041099218DF80510009600236F68284654
:10470000022201A9B84710B104E00120FEBD2046F5
:1047100000F050FE0028F9D1217D490706D500227E
:104720000121204600F011FD0028EFD12169B1F1EF
:10473000807F15D901273946204600F0D5FA002898
:10474000E4D1B7208DF8040000960023666A0122A8
:1047500001A92846B0470028D8D184F83570FEBD9D
:1047600084F83560FEBD000058540008F0B50246DC
:10477000224C1568002000EB400354F82360AE4241
:1047800009D104EB830397685E68BE4203D11B899D
:10479000D688B34202D0401C0328ECD3032818D19A
:1047A000002002E0401C032805D200EB400354F82F
:1047B0002330002BF6D1032813D000EB400344F83C
:1047C000235004EB830395685D60D2881A81002230
:1047D0005A81002900EB400104EB8101498905D091
:1047E00009B10020F0BD4FF4807100E0491C00EBDE
:1047F000400204EB8202401C5181F0BD781500207C
:104800000246488B92F80022032A02D1898A40EAA4
:10481000014070472DE9F04106460C4640F2FF7515
:10482000174635EA14502BD0002213463046FBF7CA
:1048300033FD25D03A4630462146FBF7C1FD0646FA
:104840000C4635EA145010D0002213463046FBF7D0
:1048500023FD15D10220FEF775FAFEF75BFA0A4632
:10486000214662F31E01BDE8F0810220FEF76AFADC
:10487000FEF748FA0A46214662F31E01BDE8F081C0
:1048800030462146BDE8F08110B5FBF7EFFDFCF79F
:1048900047FEFDF795FAFCF7FBFE002010BD30B592
:1048A00090F835000D4608B1042300E003230020F2
:1048B00007E0191ACC00083C25FA04F11154401CF9
:1048C000C0B29842F5D330BD03E011F8013B00F8C7
:1048D000013B521EF9D27047C9B201E000F8011B3A
:1048E000521EFBD2704770B50646D0F82C020D461A
:1048F0000024A84210D0304600F0FFFC04000BD189
:1049000096F8010201232A463146FFF747F808B11D
:10491000651E0124C6F82C52204670BD2DE9F04FCB
:10492000C3B0824600F1200915460F4600692944AC
:10493000DDF830B11E464FF00008814203D9052052
:1049400043B0BDE8F08FD9F808104846F1B3884766
:104950004BE00121504600F0C7F95FEA000846D15C
:1049600002208DF804000DF1050239465046FFF78C
:1049700096FF9AF8350008B1052000E00420804633
:10498000B7FBF6F006FB107060B1B7FBF6F006FB64
:104990001070301AA84209D2B7FBF6F006FB10706F
:1049A000341A04E0B54201D9344600E02C4601A88F
:1049B0002D1B2744404422465946FBF716FC002095
:1049C000009008EB04024846002300E00DE0D9F80F
:1049D00004C001A9E0475FEA000808D1504600F092
:1049E000E9FC5FEA000802D1A344002DB1D1002107
:1049F000504600F079F9D9F80C10484601B18847C3
:104A000040469DE72DE9F04716460D46044602292B
:104A100003D3D4F81402A84202D80220BDE8F087DC
:104A200094F8000206F0FF084FF00109012820D099
:104A3000022850D00328F0D1D4F8200200EBD51181
:104A40002046FFF750FF0028E8D140F2FF1101EAAD
:104A5000850121444FF07043D1F8012003EA02227E
:104A600032430A70130A4B70130C8B70120ECA700B
:104A700041E0D4F8200205EB550700EB5721204612
:104A8000FFF731FF0028C9D1C7F308007F1C20447D
:104A9000E90703D0017868F31F1100E03146017087
:104AA00084F80492D4F8200200EB57212046FFF747
:104AB0001AFF0028B2D1C7F308012144EA0702D047
:104AC000C6F3071205E00A78C6F3032302F0F002EA
:104AD0001A430A700FE0D4F8200200EB152120469B
:104AE000FFF701FF002899D1E9B204EB4101320A36
:104AF00081F800804A7084F804928FE7F0B589B09D
:104B0000054600F144044E6824216846FBF786FB05
:104B100024236A463146284600F094F8B8BB401C6E
:104B2000C0B20928FBD39DF80100E0719DF8000098
:104B3000002100F003000127012802D0032842D100
:104B400001E0A77100E0A1719DF80000C0F38000B2
:104B5000F0B110B14FF48070A0809DF80000C0F358
:104B6000C000B8B140B121729DF80000C0F3001040
:104B700090B108B1062060729DF80200C0F34100B8
:104B800060B101280DD00228A1720BD0E1721AE0A9
:104B9000A780E2E72772EFE75020ECE7A772E17207
:104BA00001E0A772E7729DF80400DDF8052040EAF5
:104BB00002209DF80720D20908D072B120F00040F1
:104BC000232806D9E160002009B0F0BD07EBD00032
:104BD00002E0C01E07FA00F0E060002001466D46CA
:104BE00005EB4002137F43B107FA03F604EBC10360
:104BF000491C1E61527F1A75C9B2401CC0B20428FC
:104C0000EED3002304EBC3010869A0B1581C0FE0E8
:104C100004EBC002156955B10E69AE4207D991F88F
:104C200014C00D61157D0D75166182F814C0401C0D
:104C3000C0B20428ECD35B1CDBB2042BE2D3277098
:104C40000120C1E73EB55A248DF804400C0C8DF8C4
:104C500005400C0A8DF806408DF80710FF210093DF
:104C60008DF8081013460522446A01A92030A04798
:104C70003EBD2DE9F0410F460446022917D3D4F872
:104C80001402B84213D9002623E039462046FFF724
:104C9000C3FB050021D0012D09D0681C09D00022DA
:104CA00039462046FFF7AEFE060016D103E0022685
:104CB00013E0012611E0D4F81002411C08D0401C7A
:104CC000C4F8100294F8050240F0010084F80502CF
:104CD0002F46D4F81402B842D7D83046BDE8F08148
:104CE0007820401EFDD27047FEB50C00054601D06D
:104CF000062000E004208DF8040000200090034608
:104D00006E6A012201A905F12000B04700280CD1EC
:104D100002A9284600F06FF9002806D1002C04D023
:104D20009DF80810890700D40220FEBD7CB5816A79
:104D3000064600F1200509B1284688470121304682
:104D4000FFF7D2FF040021D1C7208DF80400307D89
:104D5000010720460DD594218DF8051080218DF88E
:104D600006109A218DF807100090002304226C6829
:104D700003E0009000236C68012201A92846A047A7
:104D8000040003D1304600F015FB044600213046F4
:104D9000FFF7AAFFE96809B12846884720467CBD8D
:104DA00010B50446FFF716FC18B1002184F8341042
:104DB00010BD0121FAE72DE9FE4F074600F1200A58
:104DC00016460D46006931444FF00008814202D971
:104DD0000520BDE8FE8F2DB9B04203D13846FFF75C
:104DE000A5FFF6E7DAF808105046F1B3884755E01A
:104DF00097F8440050B132462946384600F007F98A
:104E000007EBC00090F85890446D02E097F81C90B2
:104E1000BC6901213846FFF767FF5FEA00083FD110
:104E20008DF804900DF1050229463846FFF737FD4D
:104E300097F8350008B1052200E004220020009018
:104E4000DAF804C05046002301A9E0475FEA0008F1
:104E500026D1384600F0AEFA5FEA000820D1B5FB53
:104E6000F4F004FB1050A8B100E017E0B5FBF4F03B
:104E700004FB1050201AB04212D2B5FBF4F004FB30
:104E80001050201A361AB5FBF4F004FB1050201A0B
:104E9000054403E0A64203D9361B2544002EA7D1C2
:104EA00000213846FFF720FFDAF80C10504601B118
:104EB000884740468DE700000048704734000020D6
:104EC00070B50025084E2C4604EB4400C0EB44109E
:104ED00006EB80004460FFF763FF00B10546641CE9
:104EE000F2D0284670BD0000340000202DE9FE43BA
:104EF0001746054600F120048846C81929699946D5
:104F0000884202D90520BDE8FE83A16809B1204688
:104F10008847284600F04EFA060015D103208DF888
:104F200004000DF1050241462846FFF7B8FC95F84C
:104F3000350008B1052200E00422009765684B4661
:104F400001A92046A8470646E16809B120468847DE
:104F50003046D8E77FB5002500F14404009501955F
:104F600006462946257008236A46FFF76BFEE8BB14
:104F70009DF8000053283CD19DF80100462838D107
:104F80009DF80200442834D19DF80300502830D108
:104F90009DF80400A0709DF805206270012A28D8B1
:104FA0000821304600950B466A460195FFF74AFEF8
:104FB000E0B99DF800008DF808009DF801008DF81B
:104FC00009009DF80200019A8DF80A009DF803106F
:104FD00022F07F428DF80B100392012809D809298D
:104FE00007D302A93046FFF789FD00E001E004B0D5
:104FF00070BD0020F9E71CB505228DF804200122C0
:1050000000920B46446A01A92030A0471CBD70B530
:10501000054600206B6DB1FBF3F403FB141303B1E1
:1050200070BD032305EBC304646D34B1944204D80E
:10503000B1FBF4F604FB16141CB1002BF0D05B1E80
:10504000F0E7184670BD00002DE9F84304464068BB
:105050004FF0000800284FD1294DE86940F4804006
:10506000E861A86940F00800A8614FF46040ADF81D
:10507000000003208DF802001820224F8DF8030055
:1050800069463846FDF7EEF8AE14ADF80060102022
:105090008DF8030069463846FDF7E4F819481030EA
:1050A0000660286940F480402861286920F4804027
:1050B000286115490868028802F4415202F54172DC
:1050C00002800868828B22F40062828307220282B7
:1050D000028822F4005202800868028842F04002EE
:1050E00002800A4860620A48A0620A48C4E90B01CB
:1050F0000948A0630948E0634046BDE8F883000022
:1051000000100240000C0140280000209D510008C2
:105110009551000899510008E14C0008C02709008A
:10512000F8B504460020A58AEE0706D000934FF498
:1051300080732046FFF7F2FBF8BD6D07FCD501B088
:105140002046BDE8F040FDF779BE2DE9FC4116464A
:1051500000F12004002551B150208DF80400009585
:1051600000236768012201A92046B84702E0012117
:10517000FFF7BAFD00280BD101208DF804008DF84F
:105180000560009500236568022201A92046A84712
:10519000BDE8FC8172B6704762B670472DE9F047F2
:1051A0000446089D26690020776834897C6104469E
:1051B0004FF47A7902EB050A28E0944202D211F802
:1051C00001CB01E04FF0FF0C4D46376801E0A5B17F
:1051D0006D1EB7F808805FEA8878F8D5C0B9A7F8DF
:1051E0000CC04D46376801E03DB16D1EB7F808C0F0
:1051F0005FEACC7CF8D058B901E0042008E0BD8912
:105200009442EDB201D303F8015B641CA245D4D8EB
:10521000726831891161BDE8F08781760A0AC27629
:105220000A0C0275090E41757047014600200B22D9
:10523000430803EBC01011F8013B521E1844C0B2E2
:10524000F6D1704770B5044600F057F8050052D10A
:1052500094F80002032846D194F80502012842D1AF
:10526000420200212046FFF737FB552084F8FE015B
:10527000AA2084F8FF015220207060706122A27081
:105280004120E070722184F8E41184F8E51184F87B
:10529000E60184F8E721D4F8100284F8E801010A55
:1052A00084F8E911010C84F8EA11000E84F8EB018E
:1052B000D4F80C0284F8EC01010A84F8ED11010C19
:1052C00084F8EE11000E84F8EF01D4F81C220123BB
:1052D000521CC4F82C2294F801022146FEF769FB07
:1052E000002084F80502002294F801021146FEF71E
:1052F00050FB00B10125284670BD2DE9F041044660
:1053000090F80402002728B3D4F82C6294F8010224
:10531000012332462146FEF74CFB08B1012719E074
:10532000002084F80402D4F82002D4F81812301AAD
:1053300088420FD294F803520AE0D4F818020123ED
:10534000064494F8010232462146FEF732FB6D1EF8
:10535000022DF2D23846BDE8F081000010B50024DD
:10536000FDF78CFBFDF78DFBFDF7ACFBFDF796FB26
:1053700005494FF400020868052803D02046641C44
:105380009042F8D310BD00009802002010B578B10B
:10539000016869B191F8002252B1B1F80622808803
:1053A000824205D191F80102FEF701FBC00700D04F
:1053B000092010BD38B5C46B054669462846FFF77D
:1053C0001AFE9DF8001001F00101014306D0A86B00
:1053D0001CB100B18047641EEFE7042038BD000017
:1053E000DC5A000801000000E45A00080400000034
:1053F0007C5A00081C000000B45A00081F0000007E
:10540000CC5A0008200000006C5A00083700000049
:10541000D45A000862000000BC5A0008890000004D
:10542000805A00088C000000C45A0008A100000047
:10543000AC5A0008AD000000885A0008BF00000008
:10544000A05A0008C8000000745A0008D5000000E7
:10545000985A0008EF0000008C5A0008EF40150031
:1054600000002000060000000010000020000000E6
:10547000303A00757064617465000000000000003F
:10548000000000809A90418E418F804545454949F2
:10549000498E8F9092924F994F555559999A9B9C4E
:1054A0009D9E9F41494F55A5A5A6A7A8A9AAABAC0B
:1054B00021AEAFB0B1B2B3B4B5B6B7B8B9BABBBC30
:1054C000BDBEBFC0C1C2C3C4C5C6C7C8C9CACBCC94
:1054D000CDCECFD0D1D2D3D4D5D6D7D8D9DADBDC84
:1054E000DDDEDFE0E1E2E3E4E5E6E7E8E9EAEBEC74
:1054F000EDEEEFF0F1F2F3F4F5F6F7F8F9FAFBFC64
:10550000FDFEFF01030507090E10121416181C1EDC
:10551000C700FC00E900E200E400E000E500E7006D
:10552000EA00EB00E800EF00EE00EC00C400C5006C
:10553000C900E600C600F400F600F200FB00F90026
:10554000FF00D600DC00A200A300A500A720920166
:10555000E100ED00F300FA00F100D100AA00BA006A
:10556000BF001023AC00BD00BC00A100AB00BB001D
:10557000912592259325022524256125622556250E
:1055800055256325512557255D255C255B2510256F
:10559000142534252C251C2500253C255E255F255A
:1055A0005A25542569256625602550256C256725D3
:1055B00068256425652559255825522553256B25D1
:1055C0006A2518250C25882584258C25902580257D
:1055D000B103DF009303C003A303C303B500C403F7
:1055E000A6039803A903B4031E22C603B503292208
:1055F0006122B1006522642220232123F700482282
:10560000B0001922B7001A227F20B200A025A00006
:105610006100620063006400650066006700680066
:1056200069006A006B006C006D006E006F00700016
:1056300071007200730074007500760077007800C6
:1056400079007A00A100A200A300A500AC00AF0081
:10565000E000E100E200E300E400E500E600E7002E
:10566000E800E900EA00EB00EC00ED00EE00EF00DE
:10567000F000F100F200F300F400F500F600F8008D
:10568000F900FA00FB00FC00FD00FE00FF00010134
:1056900003010501070109010B010D010F011101B2
:1056A00013011501170119011B011D011F01210122
:1056B00023012501270129012B012D012F01310192
:1056C0003301350137013A013C013E0140014201FD
:1056D0004401460148014B014D014F015101530165
:1056E0005501570159015B015D015F0161016301D2
:1056F0006501670169016B016D016F017101730142
:10570000750177017A017C017E019201B103B20338
:10571000B303B403B503B603B703B803B903BA03BD
:10572000BB03BC03BD03BE03BF03C003C103C3036C
:10573000C403C503C603C703C803C903CA033004AF
:105740003104320433043404350436043704380495
:1057500039043A043B043C043D043E043F04400445
:1057600041044204430444044504460447044804F5
:1057700049044A044B044C044D044E044F045104A4
:10578000520453045404550456045704580459044D
:105790005A045B045C045E045F0470217121722171
:1057A00073217421752176217721782179217A213D
:1057B0007B217C217D217E217F2141FF42FF43FF10
:1057C00044FF45FF46FF47FF48FF49FF4AFF4BFFA5
:1057D0004CFF4DFF4EFF4FFF50FF51FF52FF53FF55
:1057E00054FF55FF56FF57FF58FF59FF5AFF00005F
:1057F0004100420043004400450046004700480085
:1058000049004A004B004C004D004E004F00500034
:1058100051005200530054005500560057005800E4
:1058200059005A002100E0FFE1FFE5FFE2FFE3FF3E
:10583000C000C100C200C300C400C500C600C7004C
:10584000C800C900CA00CB00CC00CD00CE00CF00FC
:10585000D000D100D200D300D400D500D600D800AB
:10586000D900DA00DB00DC00DD00DE007801000199
:1058700002010401060108010A010C010E011001D8
:1058800012011401160118011A011C011E01200148
:1058900022012401260128012A012C012E013001B8
:1058A00032013401360139013B013D013F01410123
:1058B0004301450147014A014C014E01500152018B
:1058C0005401560158015A015C015E0160016201F8
:1058D0006401660168016A016C016E017001720168
:1058E0007401760179017B017D019101910392039D
:1058F00093039403950396039703980399039A03DC
:105900009B039C039D039E039F03A003A103A3038A
:10591000A403A503A603A703A803A903AA031004CD
:1059200011041204130414041504160417041804B3
:1059300019041A041B041C041D041E041F04200463
:105940002104220423042404250426042704280413
:1059500029042A042B042C042D042E042F040104F2
:1059600002040304040405040604070408040904EB
:105970000A040B040C040E040F046021612162214F
:1059800063216421652166216721682169216A21DB
:105990006B216C216D216E216F2121FF22FF23FFDE
:1059A00024FF25FF26FF27FF28FF29FF2AFF2BFFC3
:1059B0002CFF2DFF2EFF2FFF30FF31FF32FF33FF73
:1059C00034FF35FF36FF37FF38FF39FF3AFF00005D
:1059D000120100020000004083042058000201026E
:1059E000030109022000010100C032090400000285
:1059F0000806500407058102400000070502024026
:105A00000000040309042603530054004D006900FC
:105A1000630072006F0065006C0065006300740035
:105A200072006F006E00690063007300260353006C
:105A300054004D003300320020004D00610073001F
:105A400073002000530074006F0072006100670053
:105A5000650010035300540020004D0061007300E6
:105A6000730000005350493200000000414D49438B
:105A7000000000004953534900000000454F4E000C
:105A800045534D54000000005353540057323551D4
:105A900031364A560000000057696E626F6E64002E
:105AA0004769676144657669636500004879756E8A
:105AB0006461690041746D656C000000496E746535
:105AC0006C000000467564616E0000004D696372F1
:105AD0006F6E000053616E796F0000004379707241
:105AE0006573730046756A69747375000C5B000812
:105AF00000000020A002000014040008E05B000881
:105B0000A0020020F01B0000342D00081184A24ADE
:105B100004A0090102030406070809A2401A380D6F
:105B2000140C01402210138C5A021C080A1D642018
:105B300001B235800202202D53544D2001180E531E
:105B40004420466C617368204469736B10ED312EFC
:105B5000302024BC4E414E26292442036206627046
:105B600002150A4208021002141A03531254124D6D
:105B7000123312321231D23013A30C0C1808C11A8E
:105B8000040A15A7208113D0593308121AE20829F4
:105B9000C7134919140861181B0845081A4704134C
:105BA0008D171B0811101A05041AD90C1ACD041AE6
:105BB000E504412A40AD125A2B0804DE19083226AA
:105BC0005A2C0813AC0133201A1A52103210230336
:105BD000012978DA7D881A6D64690C9AB198000001
:0400000508000131BD
:00000001FF
